:020000040000fa
:10000000f80f0020e5110000ff0f00000f140000a2
:1000100000000000000000000000000000000000e0
:100020000000000000000000000000005b1600005f
:1000300000000000000000005b1600005b160000de
:100040005b1600005b1600005b1600005b160000ec
:100050005b1600005b1600005b160000000000004d
:100060005b160000510f00005b160000000000004e
:100070005b1600005b1600005b1600005b160000bc
:0c0080005b1600005b1600005b16000021
:020000040000fa
:10008c00f8b5c046f8bc08bc9e467047c5110000c8
:10009c00f8b5c046f8bc08bc9e4670479d110000e0
:020000040000fa
:0800ac00000600000100000045
:020000040000fa
:1000b4000023f0b51600b1b0039007910493079d97
:1000c4002b78002b00d1cfe001235b420c9310abc3
:1000d40000240e9380230b940d940f932b5d002b1f
:1000e40001d0252b30d1002c06d029002200039802
:1000f4002d1901f035fa0795079b1a78252a00d0a7
:10010400a7e001331800002105930793243a0378ec
:100114002b2b25d02dd8202b25d0232b26d00029de
:1001240000d007902a2b2cd001f07ef801250d90e9
:100134000020079a11000b780132303b092b64d957
:1001440000282dd007912be00134c7e701230b9938
:100154000b430b9311000130d9e702230b99f7e706
:1001640004230b99f4e708230b99f1e710230b9967
:10017400eee72d2bead0302befd00029d4d0079016
:10018400d2e7336801301a1d1b68079032600d9363
:10019400002b05da01220b995b424a400b920d9326
:1001a4000b9bda0702d5022293430b93079b1a7821
:1001b4002e2a0dd100270c975a785d1c07952a2a00
:1001c40025d10233079333681a1d1b6832600c93e0
:1001d40007a801f04ff9079d0700287801f0a6fb56
:1001e400252800d1d5e06138172800d9dbe001f0db
:1001f40061fb1fdab63ea6a6a6da3edadadada9ca4
:100204005e7fdadac6da4edada6e280092e7280080
:1002140001f00af801210c902a0013780135303bd3
:10022400092b03d9002fd3d00792d1e70f00f3e7ae
:100234003200390008a801f0cdf8002800d17be095
:100244006b1c079303982b7808aa0ba901f0a2fb57
:100254002418049b1c19a34200dcb0e04f22594b24
:100264001a6001235b420493049831b0f0bd33005b
:100274000122390008a800f086fa00285cd0013574
:10028400039808aa0ba9079501f082fbe0e7330065
:100294000022390008a800f076fa00284cd0013575
:1002a400039808aa0ba9079500f07cfed0e7330059
:1002b4000022390008a800f066fa00283cd0013575
:1002c400039808aa0ba9079501f062fbc0e7330065
:1002d4000022390008a800f056fa00282cd06b1c24
:1002e40007932b78039808aa0ba901f053fbafe7f7
:1002f40033000022f02108a800f045fa00281bd0a2
:10030400089b099a0135079513430cd12e4d2800fb
:1003140001f022fa290002000b9b00930d9b039825
:1003240000f060fc94e77823dce7049b39001a1999
:1003340008a8330000f092fc0135079589e73200e4
:10034400390008a801f046f80028f5d06b1c079383
:1003540003982b7808aa0ba901f01cfb78e7802fdf
:10036400ead1336801351a1d1b68326008aa13707c
:100374000123079503980ba901f00efb68e7802f72
:10038400dad132680135131d3360126800230795f2
:10039400f0e7802fd0d10b9b0135009301220b494c
:1003a4000d9b0795bbe7059b01220793002352424f
:1003b4000c9206490b930d9300930232afe7049419
:1003c4007de6c04658020020841900008a19000006
:020000040000fa
:1003d400f0b5de4657464e464546e0b583b001903b
:1003e4008c4600296dd005000123374f374a9146ca
:1003f4009346160092460de040003549009c0c548b
:10040400013000240c5451468a605a1c023563455d
:1004140047d213005a1e9046796807220a40012adf
:1004240017d0b068f468421c31698a4289410a4095
:10043400944237d001990139cc5c0094796888469c
:100444000721444621400129d6d02149009c0c545f
:10045400d9e74a469068d468421c494609698a42e9
:1004640089410a4094421dd0697809022c782143bd
:1004740000917c68a046072441460c40012c06d01c
:1004840069460978124c215459468a60bde74000f8
:10049400694609780e4c215401300099090a215407
:1004a400f2e7984601f0f4f8002802d0064b012246
:1004b4009a75404603b0f0bcbb46b246a946a04676
:1004c400f0bd8846eee7c04600080042d001002097
:0404d4000000002004
:020000040000fa
:1004d800f8b5de4657464e464546e0b5354d364bef
:1004e8002f001e00354a01239b46324b9846b246e0
:1004f8001e0016e0580030498c46095c8946ff21e9
:100508008c4349460c4301306146085c0002e4b262
:100518000443013319e0ff2323401385337d002b67
:1005280021d1137e584603423ed0a868eb68984212
:1005380037d05068072108400128dbd05046c05cfe
:10054800f8318c430443a4b20133386983428041b3
:1005580003404046c360536807210b40012bdad1a2
:10056800164b1c85dae7564601f052f9114b1b6809
:10057800002bb7d00f4b59681b7f002b08d00d4bb1
:100588009b699842aed30b4b1b6803209847a9e799
:10059800084b9b699842a5d1064b1b6803209847d6
:1005a800a0e7064b01221a75f0bcbb46b246a94625
:1005b800a046f8bdd001002000000020000800423d
:020000040000fa
:1005c800f8b5ce46474680b5334d2f00a846a94614
:1005d8005be04246126a002a42d0716a336a0120ff
:1005e8009847b36a0133326b93429241134037e024
:1005f8004a46926a5200e0b2284988540132240ad5
:100608008c543ce001f050f8234b1b6a002b3cd083
:10061800214b596a3c229b5c002b08d01e4b9b6bdc
:10062800984232d31c4b1b6a002098472de01a4b86
:100638009b6b984229d1184b1b6a0020984724e0ed
:10064800174b1b7e5b0722d5154b1c8da4b2ab6ada
:1006580001332a6b934292411340fa6a9a42b8d006
:100668000d4ad26a9a42ebd00d4a516807220a40d5
:10067800012abdd0084a926ae4b208498c54064a55
:1006880093623423d35c002bbcd1034ed8e7c0bca3
:10069800b946b046f8bdc046d00100208000002011
:0406a8000008004204
:020000040000fa
:1006ac00f0b506000f0015001c0085b08b4263d816
:1006bc0001d1824260d82100280001f079f839007c
:1006cc000090300001f074f8009b21001b1a1a00f6
:1006dc002800039301f060f800900191b94245d8cd
:1006ec0001d1b04242d8009b019c01200021039a09
:1006fc00f61aa74101f050f804000d00039b002be3
:10070c002bd0019b009adb0750081843019b59081a
:10071c00039b9c46b9422cd801d1b04229d8320057
:10072c003b00121a8b41012692185b410027b61828
:10073c005f4101235b429c446346002bead13000ad
:10074c003900039a01f01cf8039aa4197d410600a4
:10075c000f0001f021f8241a8d410a9b002b01d0c7
:10076c001e605f602000290005b0f0bd002400254c
:0e077c00c4e7b6197f41dce700240025ede755
:020000040000fa
:10078a0010b50400902911dc00207f2928dd80396a
:10079a000800102910d801f08af831313d0f110fe5
:1007aa000f0f240f0f0f0f0f0f0f3d00c0294bd053
:1007ba00f02949d0a02928d0002011e01968002a80
:1007ca0007d00a1d1a6000228b5e2360db17636064
:1007da0005e0081d18600b689bb223606260012067
:1007ea0010bd1968002a04d00a1d1a600023cb56ce
:1007fa00ebe7081d18600b68dbb2eee71968002a00
:10080a001ed00a1d1a600b68dfe71a68111d1960ed
:10081a001368dae707201968002a09d00918814302
:10082a000a0008321a600a684b6822606360d6e7d9
:10083a00ca1d824311000831196053681268f4e72f
:10084a00081d18600b68c8e71a68111d196013683b
:06085a0023600023bbe750
:020000040000fa
:1008600025750d0a00000000455252204d69737332
:10087000696e6720617267756d656e740d0a0000a0
:10088000000000004f4b0d0a0000000031303030f6
:100890000d0a000041544c61622044656d6f207662
:1008a000312e300d0a00000056312e320d0a0000a4
:1008b0003500000045525220556e6b6e6f776e20ea
:1008c000636f6d6d616e640d0a0000002a49444e2d
:1008d0003f0000005645523f000000004441433aab
:1008e0004d5600004441433a4d563f004144433a7f
:1008f000524541443f0000004144433a524541447f
:100900003a4441433f000000465245513a485a009c
:09091000465245513a485a3f0095
:020000040000fa
:02091a00704724
:020000040000fa
:10091c001e4b00229a619a8c80218a439a8419007a
:10092c001022cb681a42fcd0194b5b6a9b0e3f2bf2
:10093c002ad09b02802292001343144a9362110026
:10094c001022cb681a42fcd0104b02229a84190058
:10095c000e32cb681a42fcd00e4b0f4a5a601a006a
:10096c0053785bb2002bfbdb0a4b0c4a5a800c4ac7
:10097c005a800c4a5a800c4a5a800c4b0c4a1a6208
:10098c00024b00221a627047203bd2e7000800405d
:10099c0000608000000c0040000701000e400000c9
:1009ac0012400000134000001640000000040040fc
:0409bc0044050000ee
:020000040000fa
:1009c000f0b5d6464f464646c0b582461e4ad36a63
:1009d000956a002933d0ab4234d0040001201b4a71
:1009e00094469046184f13e05a006646b65c26704f
:1009f00001326646b25c627001333a6b93429241b7
:100a00001340814213d9421c0234ab4210d0100073
:100a10000f4a566807223240012ae5d04246d25c8e
:100a200091465246013a4e4616540133e5e71d0001
:100a3000054bdd62e0bcba46b146a846f0bd1d00dc
:100a40000800f5e70020f3e7d00100208000002037
:040a50000008004258
:020000040000fa
:100a5400002934d00123002210b488422cd301246d
:100a64002407a14204d2814202d209011b01f8e702
:100a7400e400a14204d2814202d249005b00f8e7bb
:100a8400884201d3401a1a434c08a04202d3001be7
:100a94005c0822438c08a04202d3001b9c0822431a
:100aa400cc08a04202d3001bdc082243002803d058
:100ab4001b0901d00909e3e7100010bc704701b518
:100ac400002000f06bff02bd0029f8d003b5fff74a
:0c0ad400c1ff0ebc4243891a1847c046ff
:020000040000fa
:100ae0001d4b1e4a1a601e4a9a81c02292025a6009
:100af0001a00d369002bfcd1174a136802210b435b
:100b00001360d369002bfcd1164b00221a629a6243
:100b1000da6234215a5408315a549a630021da8730
:100b20001a609a60da60197519779a610a4b5a68e7
:100b300007231340012b09d00a4b80221a631a6144
:100b4000054b80229a757c3a9a757047054b402276
:100b50001a631a61f4e7c04600080042040112401b
:080b60002bf6ffffd00100207d
:020000040000fa
:100b6800100200203c000000000000005c02002091
:100b7800020000000000000000000020000100004a
:100b880000000000d001002040000000000000002c
:100b98004c020020040000000000000000010020ba
:100ba80080000000000000005e020020020000003b
:100bb80000000000500200200400000000000000b7
:100bc80080010020500000000000000054020020b6
:100bd8000800000000000000000000000000000005
:020000040000fa
:100be800f0b589b014000e9a1d000291012311007e
:100bf8001940019003911a4201d1a5420ad8220056
:100c08000299019800f0aafca54203d82500280003
:100c180009b0f0bd2e1b37003200102e00d910226b
:100c2800202104a800f03afe0f2f0ed80f220198b9
:100c3800324004a900f092fc039b002be7d122006c
:100c48000299019800f08afce1e71022019804a9b2
:080c580000f084fc103fe7e707
:020000040000fa
:100c600010b50400902911dc00207f291bdd80399c
:100c7000080010290ed800f01ffe0f0f250d170dcc
:100c80000d0d1e0d0d0d0d0d0d0d2500a02903d010
:100c9000c02901d0002006e01968081d18600b6803
:100ca00023601a60012010bd1968081d18600b68c8
:100cb00023601a80f6e71968081d18600b68236026
:100cc0001a70efe71968081d18600b6823601a6036
:060cd000d2175a60e6e7ae
:020000040000fa
:100cd600f7b5040019000a9ee36867680093336855
:100ce600100001932369013b1c00002f00da012745
:100cf6000022009dea540123089d002c03dc002bf2
:100d06001cd02000febd02000a4309d1089aba1a77
:100d16005219002a04dc002df1dd019a9207eed566
:100d2600099b099adb1700f0c0fa8c46009913005c
:100d3600013c30320a55013d6146dee71022336838
:060d460093433360dde77a
:020000040000fa
:100d4c00194b01221a701a00537e5bb2002bfbdb8d
:100d5c00164b5a6a1b6adb0e0721114049010b43e3
:100d6c005201e021c9000a4013430f4a13850423a2
:100d7c00d370023b53700e4b1361537e5bb2002b4e
:100d8c00fbdb094bc022d2009a801a00537e5bb267
:100d9c00002bfbdb044b0f221a761a00537e5bb23e
:100dac00002bfbdb7047c046002000420060800037
:040dbc000218000f0a
:020000040000fa
:100dc000f0b5a1b001007f22684600f0d1fd7f237d
:100dd00000226946ca542021684600f04ffd071ed4
:100de00002d00023037001370d4b1e68002e0bd07c
:100df0000c4d00242968684600f0ecfc002808d05f
:100e000001340835b442f5d1074800f05ffd21b048
:100e1000f0bd044be4001b195b6838009847f6e707
:0c0e20008c19000070120000b4080000e3
:020000040000fa
:100e2c00f0b583b0144d2f00144e2c0006e0226850
:100e3c000023b3542360124b01221a7001216b461c
:100e4c00d81dfff7b7fd012811d16b46db790d2baf
:100e5c00f4d00a2bebd02a687e2a05d80649501c00
:100e6c00086006498b54e9e700233b60e6e7054b35
:100e7c0000221a7003b0f0bd4c02002000010020cb
:080e8c005e0200205f0200205d
:020000040000fa
:100e9400c9b2f8b50322040000290ad100f05cfcb1
:100ea40024182000f8bd2378002bfad08b42f8d008
:100eb40001341442f7d10b480b4d484322680b4fc1
:100ec4001600d31946409343f219b24313432b42fd
:100ed40006d02378002be4d08b42e2d00134f8e72b
:100ee4000434ebe70101010180808080fffefefef7
:020000040000fa
:100ef40000230e4a10b513600d4a13600d4a1360a7
:100f04000d4a13600d4a13600d4a53621361013395
:100f14009360fff700fdfff7fefc0a4c0a4b9c426e
:100f240000d310bd08cc9847f8e7c046540200200f
:100f34008c01002088010020800100208401002011
:0c0f440090010020980000009c000000bc
:020000040000fa
:100f500010b5144b9b7d002b16d0124a137edbb2ca
:100f6000927d52b2002a10db0e4a137edbb2927dd4
:100f7000d20701d5db070ed40a4a137edbb2927d7d
:100f8000520701d55b0709d410bd5bb2002bebda29
:100f900000f0b4f8e8e7fff79ffaede7fff714fb7e
:080fa000f2e7c0460008004220
:020000040000fa
:100fa800f0b50c004968236887b00500a768e668b3
:100fb8000593002902db02218b43059305a9536899
:100fc800126802910a21200001910097fff77ffe25
:100fd8002269059b013a121a3118009328003b0038
:100fe800fff7fefd6b68db0503d56368984200dafe
:060ff800180007b0f0bd77
:020000040000fa
:020ffe00fee70c
:020000040000fa
:1010000010b5c0214901022000f0e6fa00f06afba9
:1010100000f024fb0028fbd000f092fc084b584362
:10102000084b9c4660440849fff714fd020007493d
:10103000074c200000f0d9fb200000f047fc10bd59
:10104000e40c0000ff070000ff0f00006008000034
:041050003c0200203e
:020000040000fa
:1010540010b5c02149011c2000f0bcfa00f040fb8f
:1010640000f0fafa0028fbd000f068fc084b584363
:10107400084b9c4660440849fff7eafc0200074914
:10108400074c200000f0affb200000f01dfc10bd59
:10109400e40c0000ff070000ff0f000060080000e0
:0410a4002c020020fa
:020000040000fa
:1010a80010b5002817d000f0bdf804000c4b98428a
:1010b80000d91c00a002001b0a4b9c46604408494a
:1010c800fff7c4fc80b200f015fb074b1c800748f3
:1010d80000f0f8fb10bd064800f0f4fbfae7c04644
:1010e800e40c0000720600005c0200208408000086
:0410f8006808000084
:020000040000fa
:1010fc0010b5114b5a8b0723110019401a4200d11d
:10110c0010bd0e4bd9870c4b80221a76793a5a8334
:10111c001b7e5b0705d5084b04211a8d1a7e0a42eb
:10112c00fbd1064b1b6a002bead0044b596a1b6a95
:10113c0002209847e4e7c04600080042d001002096
:020000040000fa
:10114c0010b50c0011001a00012388b05b4201930a
:10115c000433ff330293002800d168460023039028
:10116c0004949c4200d0631e0593002c06da4f2297
:10117c000120064b40421a6008b010bd00230790b6
:10118c000370069001a800f0effaf5e75802002072
:020000040000fa
:10119c0010b5064c2378002b07d1054b002b02d041
:1011ac00044800e000bf0123237010bd1002002092
:1011bc000000000000000000044b10b5002b03d011
:1011cc000349044800e000bf10bdc0460000000009
:0811dc001402002000000000d5
:020000040000fa
:1011e40010b50a4b98470a4b984700f0d7f8094bbb
:1011f400ff229343084a9360084b9847084b98474b
:10120400084b984700f068f9fee7c046171800003d
:10121400171800000000000000ed00e0f50e0000cb
:08122400171800001718000064
:020000040000fa
:10122c00030010b51a78202a0ad0110009390429b4
:10123c0006d92b2a06d000212d2a05d1012102e046
:10124c000133efe70021013300200a2402e0604360
:10125c000133801a1a78303a092af8d9002900d1ba
:04126c00404210bd2f
:020000040000fa
:10127000cc08000001190000d4080000111900007a
:10128000dc080000a9100000e4080000b51500000b
:10129000ec08000001100000f808000055100000e4
:1012a000080900006913000010090000f11800008f
:020000040000fa
:1012b000002b11d1002a0fd1002900d1002802d023
:1012c0000021c943080007b4024802a14018029057
:1012d00003bdc046cd06000003b4684601b50298c0
:1012e000fff7e4f9019b9e4602b00cbc7047c04674
:020000040000fa
:1012f000f0b50023070008e0cc5c561efc54451cea
:101300000133002c04d032002800002af4d1f0bdb3
:101310002b000021ac19002e04d019700133a34218
:0c132000fbd185180028f2d12800f0e76e
:020000040000fa
:10132c001c2101231b04984201d3000c10391b0a09
:10133c00984201d3000a08391b09984201d30009cd
:10134c00043902a2105c40187047c0460403020224
:0c135c0001010101000000000000000081
:020000040000fa
:1013680010b500280fd0fff75dff00f0cbf80400a0
:1013780000f0e4f9200000f055fa00f0d3f9044831
:1013880000f0a0fa10bd034800f09cfafae7c04646
:08139800840800006808000051
:020000040000fa
:1013a00010b50b480168002905d14368002b02d114
:1013b00000f0c5fa10bd04008368064a9bb20c34e5
:1013c0009b009b5842682000984780002018e9e75e
:0813d000680b00005418000036
:020000040000fa
:1013d80010b50400812906dc00207f2912dd13687e
:1013e8000721073305e0002083290bd113687c39d6
:1013f80007338b4319000120083111601a685b68b4
:061408002260636010bdcc
:020000040000fa
:02140e00fee7f7
:020000040000fa
:101410000b4b20221a601f3a42215a5402315a546f
:1014200001310320585409315a5401315a541e399c
:101430005a5431321031995405321f39995470473a
:041440000044004123
:020000040000fa
:101444000a4b01221a801a00d37b5bb2002bfbdb10
:10145400064bc422d2001a80054a1a833b229a738f
:101464001a00d37b5bb2002bfbdb704700180042f1
:041474009e240000b2
:020000040000fa
:101478000200002070b50a4b4400e55c002d02d143
:101488001b19587870bd116801300e78c0b2ae4291
:1014980003d11b190131587811600a28ebd9f1e7fb
:0414a8000018000028
:020000040000fa
:1014ac0010b50a4b06225a60fff7acfffff730fa73
:1014bc0000f046fafff70efbfff742fcfff7bcff0c
:1014cc0000f0d4f800f032f810bdc04600400041e6
:020000040000fa
:1014dc0010b50020fff7e4ff00f08af800f0f0f8f8
:1014ec0000f01ef90548fff739ff00f091f80028cd
:1014fc00fbd000f09ff9fff75dfcf6e7b0080000a9
:020000040000fa
:10150c0010b5041e0dd000f033fa00196100fff77e
:10151c009bfa013880235b02984200d3024880b2c8
:0c152c0010bd0148fce7c046ffff0000b6
:020000040000fa
:10153800bff35f8f62b6074bc22080001958064a76
:101548001140c02212020a431a50802292001a60e7
:0c1558007047c04600e100e0ff00ffff0c
:020000040000fa
:1015640070b505690400954200d91500002d0bd013
:101574002a00606900f076f922696369521b2261ce
:0a15840000225b1963611a7070bd4c
:020000040000fa
:10158e0070b505000c0000f040f90023a04201d216
:10159e00180070bd21002800fef715ff031b5a42ec
:0615ae005341dbb2f4e73b
:020000040000fa
:1015b40000b585b0054b1a880549684600f013f953
:1015c400684600f081f905b000bdc0465c02002009
:0415d40060080000ab
:020000040000fa
:1015d80010b5064a1369064c23400b4318431061a3
:1015e800537e5bb2002bfbdb10bdc04600200042df
:0415f800e0e0ffff31
:020000040000fa
:1015fc0010b50648002100f0a9f90121012000f0e6
:10160c0083f8012000f086f910bdc0466519000072
:020000040000fa
:10161c0010b5054b1b78002b03d1044b1878c0b2c6
:10162c0010bdfff7fdfbf8e75f0200205e02002013
:020000040000fa
:10163c00002310b5934206d103201840421e90415e
:0e164c009b08c01810bdc45ccc540133f2e7fb
:020000040000fa
:02165a00fee7a9
:020000040000fa
:10165c00054b1a7e0123100018401a4202d0024b8f
:0c166c0001221a767047c04600200042a0
:020000040000fa
:10167800054b43225a7000229a7002321a701a00df
:0c168800d379002bfcd1704700280042f1
:020000040000fa
:10169400054a9368d068834201d3181a7047024af6
:0c16a4001269d318181af9e7d0010020d1
:020000040000fa
:1016b000054bd86a9b6a984201d8181a7047024aab
:0c16c000126bd318181af9e7d0010020b3
:020000040000fa
:1016cc00044a137802210b431370537e5bb2002b38
:0816dc00fbdb70470020004217
:020000040000fa
:1016e400044a137b02210b431373537e5bb2002b1a
:0816f400fbdb704700200042ff
:020000040000fa
:1016fc008005800d034b18811a00d379002bfcd187
:08170c007047c04600280042ae
:020000040000fa
:1017140030b50400034b3425585dc0b25c553c22ff
:08172400995430bdd0010020f2
:020000040000fa
:10172c00044a138802210b431380d37b5bb2002b3a
:08173c00fbdb704700180042be
:020000040000fa
:10174400044a138802218b431380d37b5bb2002ba2
:08175400fbdb704700180042a6
:020000040000fa
:10175c000378002b06d003005a780133002afbd102
:08176c00181a70470020fce789
:020000040000fa
:1017740013b50400019201aafef79afc6368db0624
:0817840001d50120404216bd11
:020000040000fa
:10178c00d0400b00d1409c46203ad34018435242e3
:08179c006346934018437047b7
:020000040000fa
:1017a4009140030090409c46203a93401943524292
:0817b4006346d340194370475e
:020000040000fa
:1017bc0010b5002903d1fff7b3fd203002e008007b
:0817cc00fff7aefd10bdc046a1
:020000040000fa
:1017d400002210b5835c8c5ca34202d10132002b41
:0617e400f8d1181b10bd36
:020000040000fa
:1017ea000eb403b503aa02ca019200f04cf802b083
:0617fa0008bc03b0184713
:020000040000fa
:1018000068076c094c836a9074a07ac0008068886d
:0618100000846c820081df
:020000040000fa
:02181600704719
:020000040000fa
:1018180010b5034b1c69fff739ff013c201a10bdb6
:04182800d0010020cb
:020000040000fa
:10182c00034b18831a00d37b5bb2002bfbdb704796
:04183c00001800424e
:020000040000fa
:10184000024b00221a7002487047c0465e02002018
:041850000001002073
:020000040000fa
:10185400df1800003d1600009119000091190000e6
:0418640091190000d6
:020000040000fa
:1018680010b5002a05d00023cc5cc4540133934240
:04187800fad110bdd4
:020000040000fa
:10187c0010b50c00fff708fb0378e4b2a34200d0cc
:04188c00002010bd6b
:020000040000fa
:1018900010b513000a000249fff758fc10bdc046fe
:0418a000ffffff7fc8
:020000040000fa
:1018a400002a06d00300c9b21218197001339342fa
:0418b400fbd17047ad
:020000040000fa
:1018b80002b4714649084900095c49008e4402bcdb
:0418c8007047c0465f
:020000040000fa
:1018cc0010b50400fff744ff01002000fff759fe9c
:0218dc0010bd3d
:020000040000fa
:1018de008a18914201d10020704700230b7001310c
:0218ee00f7e71a
:020000040000fa
:1018f00010b50248fff7eaff10bdc0468c08000093
:020000040000fa
:1019000010b50248fff7e2ff10bdc0469408000082
:020000040000fa
:1019100010b50248fff7daff10bdc046a808000066
:020000040000fa
:10192000002801d0014b98637047c046d0010020c9
:020000040000fa
:0e1930000300413b192b01d8202318437047b8
:020000040000fa
:02193e007047f0
:020000040000fa
:0c194000014b588b80b270470020004221
:020000040000fa
:0c194c00014b82225a60704700400041ad
:020000040000fa
:0c195800014b186259627047d00100205a
:020000040000fa
:0c196400014b01221a7070475f02002046
:020000040000fa
:0c19700010b50400fff7bcfc200010bd07
:020000040000fa
:08197c00004870476cdc02001a
:020000040000fa
:08198400286e696c29002500a2
:020000040000fa
:04198c00080000004f
:020000040000fa
:04199000002070477c
:020000040000fa
:041994000020704778
:020000040000fa
:041998000020704774
:020000040000fa
:04199c000020704770
:020000040000fa
:0419a0007047c04686
:00000001FF
